{
  "contractName": "Ewaste",
  "abi": [
    {
      "constant": false,
      "inputs": [
        {
          "name": "user",
          "type": "address"
        },
        {
          "name": "name",
          "type": "string"
        },
        {
          "name": "addres",
          "type": "string"
        },
        {
          "name": "userType",
          "type": "uint256"
        }
      ],
      "name": "regUser",
      "outputs": [
        {
          "name": "",
          "type": "bool"
        }
      ],
      "payable": false,
      "stateMutability": "nonpayable",
      "type": "function"
    },
    {
      "constant": false,
      "inputs": [
        {
          "name": "id",
          "type": "uint256"
        },
        {
          "name": "man",
          "type": "address"
        },
        {
          "name": "cat",
          "type": "string"
        },
        {
          "name": "des",
          "type": "string"
        },
        {
          "name": "amount",
          "type": "uint256"
        }
      ],
      "name": "addList",
      "outputs": [
        {
          "name": "",
          "type": "bool"
        }
      ],
      "payable": false,
      "stateMutability": "nonpayable",
      "type": "function"
    },
    {
      "constant": true,
      "inputs": [],
      "name": "getMyList",
      "outputs": [
        {
          "name": "",
          "type": "uint256[]"
        }
      ],
      "payable": false,
      "stateMutability": "view",
      "type": "function"
    },
    {
      "constant": true,
      "inputs": [
        {
          "name": "id",
          "type": "uint256"
        }
      ],
      "name": "getMyListDetail",
      "outputs": [
        {
          "name": "",
          "type": "string"
        },
        {
          "name": "",
          "type": "string"
        },
        {
          "name": "",
          "type": "string"
        },
        {
          "name": "",
          "type": "string"
        },
        {
          "name": "",
          "type": "uint256"
        }
      ],
      "payable": false,
      "stateMutability": "view",
      "type": "function"
    },
    {
      "constant": true,
      "inputs": [],
      "name": "getLists",
      "outputs": [
        {
          "name": "",
          "type": "uint256[]"
        }
      ],
      "payable": false,
      "stateMutability": "view",
      "type": "function"
    },
    {
      "constant": true,
      "inputs": [
        {
          "name": "id",
          "type": "uint256"
        },
        {
          "name": "aggregator",
          "type": "address"
        }
      ],
      "name": "getListForAggregator",
      "outputs": [
        {
          "name": "",
          "type": "uint256"
        },
        {
          "name": "",
          "type": "string"
        },
        {
          "name": "",
          "type": "string"
        },
        {
          "name": "",
          "type": "string"
        },
        {
          "name": "amount",
          "type": "uint256"
        }
      ],
      "payable": false,
      "stateMutability": "view",
      "type": "function"
    },
    {
      "constant": false,
      "inputs": [
        {
          "name": "id",
          "type": "uint256"
        },
        {
          "name": "aggregator",
          "type": "address"
        }
      ],
      "name": "approveAggregate",
      "outputs": [
        {
          "name": "",
          "type": "bool"
        }
      ],
      "payable": false,
      "stateMutability": "nonpayable",
      "type": "function"
    },
    {
      "constant": false,
      "inputs": [
        {
          "name": "id",
          "type": "uint256"
        },
        {
          "name": "recycler",
          "type": "address"
        }
      ],
      "name": "approveRecycler",
      "outputs": [
        {
          "name": "",
          "type": "bool"
        }
      ],
      "payable": false,
      "stateMutability": "nonpayable",
      "type": "function"
    }
  ],
  "bytecode": "0x608060405234801561001057600080fd5b506116e9806100206000396000f3fe60806040526004361061008e576000357c0100000000000000000000000000000000000000000000000000000000900463ffffffff1680632c1b094a146100935780632d4ed8bf1461023e578063410949161461043d5780636ba64ef1146105f757806376a0f23f1461066a5780639b0eee07146106d6578063a889d82914610749578063cb4b0909146108ea575b600080fd5b34801561009f57600080fd5b50610224600480360360a08110156100b657600080fd5b8101908080359060200190929190803573ffffffffffffffffffffffffffffffffffffffff169060200190929190803590602001906401000000008111156100fd57600080fd5b82018360208201111561010f57600080fd5b8035906020019184600183028401116401000000008311171561013157600080fd5b91908080601f016020809104026020016040519081016040528093929190818152602001838380828437600081840152601f19601f8201169050808301925050505050505091929192908035906020019064010000000081111561019457600080fd5b8201836020820111156101a657600080fd5b803590602001918460018302840111640100000000831117156101c857600080fd5b91908080601f016020809104026020016040519081016040528093929190818152602001838380828437600081840152601f19601f82011690508083019250505050505050919291929080359060200190929190505050610956565b604051808215151515815260200191505060405180910390f35b34801561024a57600080fd5b506102776004803603602081101561026157600080fd5b8101908080359060200190929190505050610ae0565b604051808060200180602001806020018060200186815260200185810385528a818151815260200191508051906020019080838360005b838110156102c95780820151818401526020810190506102ae565b50505050905090810190601f1680156102f65780820380516001836020036101000a031916815260200191505b50858103845289818151815260200191508051906020019080838360005b8381101561032f578082015181840152602081019050610314565b50505050905090810190601f16801561035c5780820380516001836020036101000a031916815260200191505b50858103835288818151815260200191508051906020019080838360005b8381101561039557808201518184015260208101905061037a565b50505050905090810190601f1680156103c25780820380516001836020036101000a031916815260200191505b50858103825287818151815260200191508051906020019080838360005b838110156103fb5780820151818401526020810190506103e0565b50505050905090810190601f1680156104285780820380516001836020036101000a031916815260200191505b50995050505050505050505060405180910390f35b34801561044957600080fd5b506104966004803603604081101561046057600080fd5b8101908080359060200190929190803573ffffffffffffffffffffffffffffffffffffffff169060200190929190505050610e99565b60405180868152602001806020018060200180602001858152602001848103845288818151815260200191508051906020019080838360005b838110156104ea5780820151818401526020810190506104cf565b50505050905090810190601f1680156105175780820380516001836020036101000a031916815260200191505b50848103835287818151815260200191508051906020019080838360005b83811015610550578082015181840152602081019050610535565b50505050905090810190601f16801561057d5780820380516001836020036101000a031916815260200191505b50848103825286818151815260200191508051906020019080838360005b838110156105b657808201518184015260208101905061059b565b50505050905090810190601f1680156105e35780820380516001836020036101000a031916815260200191505b509850505050505050505060405180910390f35b34801561060357600080fd5b506106506004803603604081101561061a57600080fd5b8101908080359060200190929190803573ffffffffffffffffffffffffffffffffffffffff169060200190929190505050611210565b604051808215151515815260200191505060405180910390f35b34801561067657600080fd5b5061067f6112a7565b6040518080602001828103825283818151815260200191508051906020019060200280838360005b838110156106c25780820151818401526020810190506106a7565b505050509050019250505060405180910390f35b3480156106e257600080fd5b5061072f600480360360408110156106f957600080fd5b8101908080359060200190929190803573ffffffffffffffffffffffffffffffffffffffff16906020019092919050505061133f565b604051808215151515815260200191505060405180910390f35b34801561075557600080fd5b506108d06004803603608081101561076c57600080fd5b81019080803573ffffffffffffffffffffffffffffffffffffffff169060200190929190803590602001906401000000008111156107a957600080fd5b8201836020820111156107bb57600080fd5b803590602001918460018302840111640100000000831117156107dd57600080fd5b91908080601f016020809104026020016040519081016040528093929190818152602001838380828437600081840152601f19601f8201169050808301925050505050505091929192908035906020019064010000000081111561084057600080fd5b82018360208201111561085257600080fd5b8035906020019184600183028401116401000000008311171561087457600080fd5b91908080601f016020809104026020016040519081016040528093929190818152602001838380828437600081840152601f19601f820116905080830192505050505050509192919290803590602001909291905050506113d6565b604051808215151515815260200191505060405180910390f35b3480156108f657600080fd5b506108ff6115c0565b6040518080602001828103825283818151815260200191508051906020019060200280838360005b83811015610942578082015181840152602081019050610927565b505050509050019250505060405180910390f35b600085600080888152602001908152602001600020600001819055508460008088815260200190815260200160002060010160006101000a81548173ffffffffffffffffffffffffffffffffffffffff021916908373ffffffffffffffffffffffffffffffffffffffff1602179055508360008088815260200190815260200160002060040190805190602001906109ef929190611618565b50826000808881526020019081526020016000206005019080519060200190610a19929190611618565b508160008088815260200190815260200160002060060181905550600080600088815260200190815260200160002060070160006101000a81548160ff02191690836003811115610a6657fe5b0217905550600160003373ffffffffffffffffffffffffffffffffffffffff1673ffffffffffffffffffffffffffffffffffffffff16815260200190815260200160002060040186908060018154018082558091505090600182039060005260206000200160009091929091909150555095945050505050565b60608060608060006001600080600089815260200190815260200160002060020160009054906101000a900473ffffffffffffffffffffffffffffffffffffffff1673ffffffffffffffffffffffffffffffffffffffff1673ffffffffffffffffffffffffffffffffffffffff168152602001908152602001600020600101600160008060008a815260200190815260200160002060030160009054906101000a900473ffffffffffffffffffffffffffffffffffffffff1673ffffffffffffffffffffffffffffffffffffffff1673ffffffffffffffffffffffffffffffffffffffff1681526020019081526020016000206001016000808981526020019081526020016000206004016000808a81526020019081526020016000206005016000808b815260200190815260200160002060060154848054600181600116156101000203166002900480601f016020809104026020016040519081016040528092919081815260200182805460018160011615610100020316600290048015610cab5780601f10610c8057610100808354040283529160200191610cab565b820191906000526020600020905b815481529060010190602001808311610c8e57829003601f168201915b50505050509450838054600181600116156101000203166002900480601f016020809104026020016040519081016040528092919081815260200182805460018160011615610100020316600290048015610d475780601f10610d1c57610100808354040283529160200191610d47565b820191906000526020600020905b815481529060010190602001808311610d2a57829003601f168201915b50505050509350828054600181600116156101000203166002900480601f016020809104026020016040519081016040528092919081815260200182805460018160011615610100020316600290048015610de35780601f10610db857610100808354040283529160200191610de3565b820191906000526020600020905b815481529060010190602001808311610dc657829003601f168201915b50505050509250818054600181600116156101000203166002900480601f016020809104026020016040519081016040528092919081815260200182805460018160011615610100020316600290048015610e7f5780601f10610e5457610100808354040283529160200191610e7f565b820191906000526020600020905b815481529060010190602001808311610e6257829003601f168201915b505050505091509450945094509450945091939590929450565b600060608060606000806003811115610eae57fe5b60008089815260200190815260200160002060070160009054906101000a900460ff166003811115610edc57fe5b141515610ee857600080fd5b8573ffffffffffffffffffffffffffffffffffffffff1660008089815260200190815260200160002060020160009054906101000a900473ffffffffffffffffffffffffffffffffffffffff1673ffffffffffffffffffffffffffffffffffffffff1614151515610f5857600080fd5b6060600160008060008b815260200190815260200160002060010160009054906101000a900473ffffffffffffffffffffffffffffffffffffffff1673ffffffffffffffffffffffffffffffffffffffff1673ffffffffffffffffffffffffffffffffffffffff1681526020019081526020016000206001018054600181600116156101000203166002900480601f0160208091040260200160405190810160405280929190818152602001828054600181600116156101000203166002900480156110655780601f1061103a57610100808354040283529160200191611065565b820191906000526020600020905b81548152906001019060200180831161104857829003601f168201915b5050505050905060008089815260200190815260200160002060000154816000808b81526020019081526020016000206004016000808c81526020019081526020016000206005016000808d815260200190815260200160002060060154828054600181600116156101000203166002900480601f0160208091040260200160405190810160405280929190818152602001828054600181600116156101000203166002900480156111585780601f1061112d57610100808354040283529160200191611158565b820191906000526020600020905b81548152906001019060200180831161113b57829003601f168201915b50505050509250818054600181600116156101000203166002900480601f0160208091040260200160405190810160405280929190818152602001828054600181600116156101000203166002900480156111f45780601f106111c9576101008083540402835291602001916111f4565b820191906000526020600020905b8154815290600101906020018083116111d757829003601f168201915b5050505050915095509550955095509550509295509295909350565b60008160008085815260200190815260200160002060020160006101000a81548173ffffffffffffffffffffffffffffffffffffffff021916908373ffffffffffffffffffffffffffffffffffffffff160217905550600160008085815260200190815260200160002060070160006101000a81548160ff0219169083600381111561129857fe5b02179055506001905092915050565b6060600160003373ffffffffffffffffffffffffffffffffffffffff1673ffffffffffffffffffffffffffffffffffffffff16815260200190815260200160002060040180548060200260200160405190810160405280929190818152602001828054801561133557602002820191906000526020600020905b815481526020019060010190808311611321575b5050505050905090565b60008160008085815260200190815260200160002060030160006101000a81548173ffffffffffffffffffffffffffffffffffffffff021916908373ffffffffffffffffffffffffffffffffffffffff160217905550600260008085815260200190815260200160002060070160006101000a81548160ff021916908360038111156113c757fe5b02179055506001905092915050565b600084600160008773ffffffffffffffffffffffffffffffffffffffff1673ffffffffffffffffffffffffffffffffffffffff16815260200190815260200160002060000160006101000a81548173ffffffffffffffffffffffffffffffffffffffff021916908373ffffffffffffffffffffffffffffffffffffffff16021790555083600160008773ffffffffffffffffffffffffffffffffffffffff1673ffffffffffffffffffffffffffffffffffffffff16815260200190815260200160002060010190805190602001906114af929190611618565b5082600160008773ffffffffffffffffffffffffffffffffffffffff1673ffffffffffffffffffffffffffffffffffffffff1681526020019081526020016000206002019080519060200190611506929190611618565b5081600160008773ffffffffffffffffffffffffffffffffffffffff1673ffffffffffffffffffffffffffffffffffffffff1681526020019081526020016000206003018190555060028590806001815401808255809150509060018203906000526020600020016000909192909190916101000a81548173ffffffffffffffffffffffffffffffffffffffff021916908373ffffffffffffffffffffffffffffffffffffffff1602179055505060019050949350505050565b6060600380548060200260200160405190810160405280929190818152602001828054801561160e57602002820191906000526020600020905b8154815260200190600101908083116115fa575b5050505050905090565b828054600181600116156101000203166002900490600052602060002090601f016020900481019282601f1061165957805160ff1916838001178555611687565b82800160010185558215611687579182015b8281111561168657825182559160200191906001019061166b565b5b5090506116949190611698565b5090565b6116ba91905b808211156116b657600081600090555060010161169e565b5090565b9056fea165627a7a72305820c2f94b13482105ee1ad2626bb0f2c13d47942a2e6d813077162955da26c4c6c10029",
  "source": "pragma solidity ^0.5.0;\n\ncontract Ewaste{\n    \n    /**\n     *enums are one way to create a user-defined type in Solidity. \n     * They are explicitly convertible to and from all integer types\n     * but implicit conversion is not allowed.\n     * The explicit conversions check the value ranges at runtime and a failure causes an exception.\n     * Enums needs at least one member.\n\n     */\n   \n    enum Status {create, aggregate, recycle, complete}\n    \n    \n    /**\n     * A struct in solidity is just a custom type that you can define.\n     * You define the struct with a name and associated properties inside of it.\n     */\n    \n   struct List{\n        uint listId;\n        address manufacture;\n        address aggregator;\n        address recycler;\n        string category;\n        string description;\n        uint amountOffered;\n        Status status;\n    }\n    struct User{\n    \n        address user;\n        string name;\n        string addres;\n        uint userType;\n        uint[] myList;\n    }\n  \n    mapping (uint => List) lists;\n    mapping (address =>User) users;\n    \n    address[] allusers;\n    uint[] allLits;\n    \n    /**\n     * Register the various users like\n     * Manufacturer\n     * Aggregators\n     * Recyclers\n     * etc\n     */\n    \n    function regUser(address user, string memory name, string memory addres,uint userType) public returns (bool){\n    users[user].user=user;\n    users[user].name=name;\n    users[user].addres=addres;\n    users[user].userType=userType;\n    \n    allusers.push(user);\n    return true;\n    }\n    \n    /**\n     * Manufacture can place order for require amount of e-waste\n     */\n    \n    function addList( uint id, address man, string memory cat, string memory des,uint amount) public returns(bool){\n        lists[id].listId=id;\n        lists[id].manufacture=man;\n        lists[id].category=cat;\n        lists[id].description=des;\n        lists[id].amountOffered=amount;\n        lists[id].status=Status.create;\n        users[msg.sender].myList.push(id);\n    }\n    /**\n     * Get the list of orders\n     */\n    \n    function getMyList()public view returns(uint[] memory){\n       return users[msg.sender].myList;\n    }\n    \n    function getMyListDetail(uint id) public view returns(string memory, string memory,string memory, string memory,uint){\n        return (users[lists[id].aggregator].name,users[lists[id].recycler].name,lists[id].category,lists[id].description,lists[id].amountOffered);\n    }\n    \n    function getLists() public view returns(uint[] memory){\n        return allLits;\n    }\n    \n    /**\n     * Get the list of orders for Aggregators\n     */\n    \n    function getListForAggregator(uint id, address aggregator) public view returns(uint,string memory, string memory, string memory, uint amount){\n        require(lists[id].status==Status.create);\n        require(lists[id].aggregator!=aggregator);\n        string memory name=users[lists[id].manufacture].name;\n        return (lists[id].listId,name,lists[id].category,lists[id].description,lists[id].amountOffered);\n    }\n    \n    /**\n     * aggregator can approve the order from manufacture\n     */\n\n    \n    function approveAggregate(uint id, address aggregator) public returns(bool){\n        lists[id].aggregator=aggregator;\n        lists[id].status=Status.aggregate;\n        return true;\n    }\n    \n    /**\n     * aggregator can add the recycler in this function\n     */\n    \n    function approveRecycler(uint id, address recycler) public returns(bool){\n        lists[id].recycler=recycler;\n        lists[id].status=Status.recycle;\n        return true;\n    }\n    \n    \n}\n    \n    \n",
  "sourcePath": "/home/lucifer/Videos/E-waste-management/contracts/Ewaste.sol",
  "compiler": {
    "name": "solc",
    "version": "0.5.0+commit.1d4f565a.Emscripten.clang"
  },
  "schemaVersion": "3.0.9",
  "updatedAt": "2019-10-04T13:26:04.346Z",
  "devdoc": {
    "methods": {}
  },
  "userdoc": {
    "methods": {
      "addList(uint256,address,string,string,uint256)": {
        "notice": "Manufacture can place order for require amount of e-waste"
      },
      "approveAggregate(uint256,address)": {
        "notice": "aggregator can approve the order from manufacture"
      },
      "approveRecycler(uint256,address)": {
        "notice": "aggregator can add the recycler in this function"
      },
      "getListForAggregator(uint256,address)": {
        "notice": "Get the list of orders for Aggregators"
      },
      "getMyList()": {
        "notice": "Get the list of orders"
      },
      "regUser(address,string,string,uint256)": {
        "notice": "Register the various users like Manufacturer Aggregators Recyclers etc"
      }
    }
  }
}